{
  "_format": "hh-sol-artifact-1",
  "contractName": "KhyberCrystal",
  "sourceName": "contracts/KhyberCrystal.sol",
  "abi": [
    {
      "inputs": [],
      "stateMutability": "nonpayable",
      "type": "constructor"
    },
    {
      "anonymous": false,
      "inputs": [
        {
          "indexed": true,
          "internalType": "address",
          "name": "owner",
          "type": "address"
        },
        {
          "indexed": true,
          "internalType": "address",
          "name": "approved",
          "type": "address"
        },
        {
          "indexed": true,
          "internalType": "uint256",
          "name": "tokenId",
          "type": "uint256"
        }
      ],
      "name": "Approval",
      "type": "event"
    },
    {
      "anonymous": false,
      "inputs": [
        {
          "indexed": true,
          "internalType": "address",
          "name": "owner",
          "type": "address"
        },
        {
          "indexed": true,
          "internalType": "address",
          "name": "operator",
          "type": "address"
        },
        {
          "indexed": false,
          "internalType": "bool",
          "name": "approved",
          "type": "bool"
        }
      ],
      "name": "ApprovalForAll",
      "type": "event"
    },
    {
      "anonymous": false,
      "inputs": [
        {
          "indexed": true,
          "internalType": "bytes32",
          "name": "role",
          "type": "bytes32"
        },
        {
          "indexed": true,
          "internalType": "bytes32",
          "name": "previousAdminRole",
          "type": "bytes32"
        },
        {
          "indexed": true,
          "internalType": "bytes32",
          "name": "newAdminRole",
          "type": "bytes32"
        }
      ],
      "name": "RoleAdminChanged",
      "type": "event"
    },
    {
      "anonymous": false,
      "inputs": [
        {
          "indexed": true,
          "internalType": "bytes32",
          "name": "role",
          "type": "bytes32"
        },
        {
          "indexed": true,
          "internalType": "address",
          "name": "account",
          "type": "address"
        },
        {
          "indexed": true,
          "internalType": "address",
          "name": "sender",
          "type": "address"
        }
      ],
      "name": "RoleGranted",
      "type": "event"
    },
    {
      "anonymous": false,
      "inputs": [
        {
          "indexed": true,
          "internalType": "bytes32",
          "name": "role",
          "type": "bytes32"
        },
        {
          "indexed": true,
          "internalType": "address",
          "name": "account",
          "type": "address"
        },
        {
          "indexed": true,
          "internalType": "address",
          "name": "sender",
          "type": "address"
        }
      ],
      "name": "RoleRevoked",
      "type": "event"
    },
    {
      "anonymous": false,
      "inputs": [
        {
          "indexed": true,
          "internalType": "address",
          "name": "from",
          "type": "address"
        },
        {
          "indexed": true,
          "internalType": "address",
          "name": "to",
          "type": "address"
        },
        {
          "indexed": true,
          "internalType": "uint256",
          "name": "tokenId",
          "type": "uint256"
        }
      ],
      "name": "Transfer",
      "type": "event"
    },
    {
      "inputs": [],
      "name": "DEFAULT_ADMIN_ROLE",
      "outputs": [
        {
          "internalType": "bytes32",
          "name": "",
          "type": "bytes32"
        }
      ],
      "stateMutability": "view",
      "type": "function"
    },
    {
      "inputs": [],
      "name": "MINTER_ROLE",
      "outputs": [
        {
          "internalType": "bytes32",
          "name": "",
          "type": "bytes32"
        }
      ],
      "stateMutability": "view",
      "type": "function"
    },
    {
      "inputs": [
        {
          "internalType": "address",
          "name": "to",
          "type": "address"
        },
        {
          "internalType": "uint256",
          "name": "tokenId",
          "type": "uint256"
        }
      ],
      "name": "approve",
      "outputs": [],
      "stateMutability": "nonpayable",
      "type": "function"
    },
    {
      "inputs": [
        {
          "internalType": "address",
          "name": "owner",
          "type": "address"
        }
      ],
      "name": "balanceOf",
      "outputs": [
        {
          "internalType": "uint256",
          "name": "",
          "type": "uint256"
        }
      ],
      "stateMutability": "view",
      "type": "function"
    },
    {
      "inputs": [
        {
          "internalType": "uint256",
          "name": "tokenId",
          "type": "uint256"
        }
      ],
      "name": "getApproved",
      "outputs": [
        {
          "internalType": "address",
          "name": "",
          "type": "address"
        }
      ],
      "stateMutability": "view",
      "type": "function"
    },
    {
      "inputs": [
        {
          "internalType": "bytes32",
          "name": "role",
          "type": "bytes32"
        }
      ],
      "name": "getRoleAdmin",
      "outputs": [
        {
          "internalType": "bytes32",
          "name": "",
          "type": "bytes32"
        }
      ],
      "stateMutability": "view",
      "type": "function"
    },
    {
      "inputs": [],
      "name": "getTotalSupply",
      "outputs": [
        {
          "internalType": "uint256",
          "name": "",
          "type": "uint256"
        }
      ],
      "stateMutability": "view",
      "type": "function"
    },
    {
      "inputs": [
        {
          "internalType": "bytes32",
          "name": "role",
          "type": "bytes32"
        },
        {
          "internalType": "address",
          "name": "account",
          "type": "address"
        }
      ],
      "name": "grantRole",
      "outputs": [],
      "stateMutability": "nonpayable",
      "type": "function"
    },
    {
      "inputs": [
        {
          "internalType": "bytes32",
          "name": "role",
          "type": "bytes32"
        },
        {
          "internalType": "address",
          "name": "account",
          "type": "address"
        }
      ],
      "name": "hasRole",
      "outputs": [
        {
          "internalType": "bool",
          "name": "",
          "type": "bool"
        }
      ],
      "stateMutability": "view",
      "type": "function"
    },
    {
      "inputs": [
        {
          "internalType": "address",
          "name": "owner",
          "type": "address"
        },
        {
          "internalType": "address",
          "name": "operator",
          "type": "address"
        }
      ],
      "name": "isApprovedForAll",
      "outputs": [
        {
          "internalType": "bool",
          "name": "",
          "type": "bool"
        }
      ],
      "stateMutability": "view",
      "type": "function"
    },
    {
      "inputs": [
        {
          "internalType": "address",
          "name": "user",
          "type": "address"
        },
        {
          "internalType": "string",
          "name": "_tokenURI",
          "type": "string"
        }
      ],
      "name": "mintItem",
      "outputs": [
        {
          "internalType": "uint256",
          "name": "",
          "type": "uint256"
        }
      ],
      "stateMutability": "nonpayable",
      "type": "function"
    },
    {
      "inputs": [],
      "name": "name",
      "outputs": [
        {
          "internalType": "string",
          "name": "",
          "type": "string"
        }
      ],
      "stateMutability": "view",
      "type": "function"
    },
    {
      "inputs": [
        {
          "internalType": "uint256",
          "name": "tokenId",
          "type": "uint256"
        }
      ],
      "name": "ownerOf",
      "outputs": [
        {
          "internalType": "address",
          "name": "",
          "type": "address"
        }
      ],
      "stateMutability": "view",
      "type": "function"
    },
    {
      "inputs": [
        {
          "internalType": "bytes32",
          "name": "role",
          "type": "bytes32"
        },
        {
          "internalType": "address",
          "name": "account",
          "type": "address"
        }
      ],
      "name": "renounceRole",
      "outputs": [],
      "stateMutability": "nonpayable",
      "type": "function"
    },
    {
      "inputs": [
        {
          "internalType": "bytes32",
          "name": "role",
          "type": "bytes32"
        },
        {
          "internalType": "address",
          "name": "account",
          "type": "address"
        }
      ],
      "name": "revokeRole",
      "outputs": [],
      "stateMutability": "nonpayable",
      "type": "function"
    },
    {
      "inputs": [
        {
          "internalType": "address",
          "name": "to",
          "type": "address"
        }
      ],
      "name": "safeMint",
      "outputs": [],
      "stateMutability": "nonpayable",
      "type": "function"
    },
    {
      "inputs": [
        {
          "internalType": "address",
          "name": "from",
          "type": "address"
        },
        {
          "internalType": "address",
          "name": "to",
          "type": "address"
        },
        {
          "internalType": "uint256",
          "name": "tokenId",
          "type": "uint256"
        }
      ],
      "name": "safeTransferFrom",
      "outputs": [],
      "stateMutability": "nonpayable",
      "type": "function"
    },
    {
      "inputs": [
        {
          "internalType": "address",
          "name": "from",
          "type": "address"
        },
        {
          "internalType": "address",
          "name": "to",
          "type": "address"
        },
        {
          "internalType": "uint256",
          "name": "tokenId",
          "type": "uint256"
        },
        {
          "internalType": "bytes",
          "name": "_data",
          "type": "bytes"
        }
      ],
      "name": "safeTransferFrom",
      "outputs": [],
      "stateMutability": "nonpayable",
      "type": "function"
    },
    {
      "inputs": [
        {
          "internalType": "address",
          "name": "operator",
          "type": "address"
        },
        {
          "internalType": "bool",
          "name": "approved",
          "type": "bool"
        }
      ],
      "name": "setApprovalForAll",
      "outputs": [],
      "stateMutability": "nonpayable",
      "type": "function"
    },
    {
      "inputs": [
        {
          "internalType": "bytes4",
          "name": "interfaceId",
          "type": "bytes4"
        }
      ],
      "name": "supportsInterface",
      "outputs": [
        {
          "internalType": "bool",
          "name": "",
          "type": "bool"
        }
      ],
      "stateMutability": "view",
      "type": "function"
    },
    {
      "inputs": [],
      "name": "symbol",
      "outputs": [
        {
          "internalType": "string",
          "name": "",
          "type": "string"
        }
      ],
      "stateMutability": "view",
      "type": "function"
    },
    {
      "inputs": [
        {
          "internalType": "uint256",
          "name": "index",
          "type": "uint256"
        }
      ],
      "name": "tokenByIndex",
      "outputs": [
        {
          "internalType": "uint256",
          "name": "",
          "type": "uint256"
        }
      ],
      "stateMutability": "view",
      "type": "function"
    },
    {
      "inputs": [
        {
          "internalType": "address",
          "name": "owner",
          "type": "address"
        },
        {
          "internalType": "uint256",
          "name": "index",
          "type": "uint256"
        }
      ],
      "name": "tokenOfOwnerByIndex",
      "outputs": [
        {
          "internalType": "uint256",
          "name": "",
          "type": "uint256"
        }
      ],
      "stateMutability": "view",
      "type": "function"
    },
    {
      "inputs": [
        {
          "internalType": "uint256",
          "name": "tokenId",
          "type": "uint256"
        }
      ],
      "name": "tokenURI",
      "outputs": [
        {
          "internalType": "string",
          "name": "",
          "type": "string"
        }
      ],
      "stateMutability": "view",
      "type": "function"
    },
    {
      "inputs": [],
      "name": "totalSupply",
      "outputs": [
        {
          "internalType": "uint256",
          "name": "",
          "type": "uint256"
        }
      ],
      "stateMutability": "view",
      "type": "function"
    },
    {
      "inputs": [
        {
          "internalType": "address",
          "name": "from",
          "type": "address"
        },
        {
          "internalType": "address",
          "name": "to",
          "type": "address"
        },
        {
          "internalType": "uint256",
          "name": "tokenId",
          "type": "uint256"
        }
      ],
      "name": "transferFrom",
      "outputs": [],
      "stateMutability": "nonpayable",
      "type": "function"
    }
  ],
  "bytecode": "0x60806040523480156200001157600080fd5b50604080518082018252600e81526d12da1e58995c8810dc9e5cdd185b60921b60208083019182528351808501909452600884526712d2149654d5105360c21b90840152815191929162000068916000916200014a565b5080516200007e9060019060208401906200014a565b50620000909150600090503362000096565b6200022d565b620000a28282620000a6565b5050565b6000828152600b602090815260408083206001600160a01b038516845290915290205460ff16620000a2576000828152600b602090815260408083206001600160a01b03851684529091529020805460ff19166001179055620001063390565b6001600160a01b0316816001600160a01b0316837f2f8788117e7eff1d82e926ec794901d17c78024a50270940304540a733656f0d60405160405180910390a45050565b8280546200015890620001f0565b90600052602060002090601f0160209004810192826200017c5760008555620001c7565b82601f106200019757805160ff1916838001178555620001c7565b82800160010185558215620001c7579182015b82811115620001c7578251825591602001919060010190620001aa565b50620001d5929150620001d9565b5090565b5b80821115620001d55760008155600101620001da565b600181811c908216806200020557607f821691505b602082108114156200022757634e487b7160e01b600052602260045260246000fd5b50919050565b612560806200023d6000396000f3fe608060405234801561001057600080fd5b50600436106101ae5760003560e01c80634f6ccce7116100ee578063a22cb46511610097578063c87b56dd11610071578063c87b56dd1461039e578063d5391393146103b1578063d547741f146103d8578063e985e9c5146103eb57600080fd5b8063a22cb46514610370578063b88d4fde14610383578063c4e41b221461039657600080fd5b806391d14854116100c857806391d148541461032757806395d89b4114610360578063a217fddf1461036857600080fd5b80634f6ccce7146102ee5780636352211e1461030157806370a082311461031457600080fd5b806323b872dd1161015b5780632f745c59116101355780632f745c59146102a257806336568abe146102b557806340d097c3146102c857806342842e0e146102db57600080fd5b806323b872dd14610259578063248a9ca31461026c5780632f2ff15d1461028f57600080fd5b8063095ea7b31161018c578063095ea7b31461021b578063110bcd451461023057806318160ddd1461025157600080fd5b806301ffc9a7146101b357806306fdde03146101db578063081812fc146101f0575b600080fd5b6101c66101c1366004612260565b610427565b60405190151581526020015b60405180910390f35b6101e3610438565b6040516101d291906123b0565b6102036101fe366004612226565b6104ca565b6040516001600160a01b0390911681526020016101d2565b61022e6102293660046121fd565b610564565b005b61024361023e36600461219e565b610696565b6040519081526020016101d2565b600854610243565b61022e6102673660046120b0565b6106be565b61024361027a366004612226565b6000908152600b602052604090206001015490565b61022e61029d36600461223e565b610745565b6102436102b03660046121fd565b61076b565b61022e6102c336600461223e565b610813565b61022e6102d6366004612064565b61089f565b61022e6102e93660046120b0565b6108fd565b6102436102fc366004612226565b610918565b61020361030f366004612226565b6109ca565b610243610322366004612064565b610a55565b6101c661033536600461223e565b6000918252600b602090815260408084206001600160a01b0393909316845291905290205460ff1690565b6101e3610aef565b610243600081565b61022e61037e366004612164565b610afe565b61022e6103913660046120eb565b610bc3565b610243610c51565b6101e36103ac366004612226565b610c61565b6102437f9f2df0fed2c77648de5860a4cc508cd0818c85b8b8a1ab4ceeef8d981c8956a681565b61022e6103e636600461223e565b610c6c565b6101c66103f936600461207e565b6001600160a01b03918216600090815260056020908152604080832093909416825291909152205460ff1690565b600061043282610c92565b92915050565b60606000805461044790612468565b80601f016020809104026020016040519081016040528092919081815260200182805461047390612468565b80156104c05780601f10610495576101008083540402835291602001916104c0565b820191906000526020600020905b8154815290600101906020018083116104a357829003601f168201915b5050505050905090565b6000818152600260205260408120546001600160a01b03166105485760405162461bcd60e51b815260206004820152602c60248201527f4552433732313a20617070726f76656420717565727920666f72206e6f6e657860448201526b34b9ba32b73a103a37b5b2b760a11b60648201526084015b60405180910390fd5b506000908152600460205260409020546001600160a01b031690565b600061056f826109ca565b9050806001600160a01b0316836001600160a01b031614156105f95760405162461bcd60e51b815260206004820152602160248201527f4552433732313a20617070726f76616c20746f2063757272656e74206f776e6560448201527f7200000000000000000000000000000000000000000000000000000000000000606482015260840161053f565b336001600160a01b0382161480610615575061061581336103f9565b6106875760405162461bcd60e51b815260206004820152603860248201527f4552433732313a20617070726f76652063616c6c6572206973206e6f74206f7760448201527f6e6572206e6f7220617070726f76656420666f7220616c6c0000000000000000606482015260840161053f565b6106918383610cd0565b505050565b6000806106a2600c5490565b90506106ad8461089f565b6106b78184610d4b565b9392505050565b6106c83382610df4565b61073a5760405162461bcd60e51b815260206004820152603160248201527f4552433732313a207472616e736665722063616c6c6572206973206e6f74206f60448201527f776e6572206e6f7220617070726f766564000000000000000000000000000000606482015260840161053f565b610691838383610eeb565b6000828152600b602052604090206001015461076181336110d0565b6106918383611150565b600061077683610a55565b82106107ea5760405162461bcd60e51b815260206004820152602b60248201527f455243373231456e756d657261626c653a206f776e657220696e646578206f7560448201527f74206f6620626f756e6473000000000000000000000000000000000000000000606482015260840161053f565b506001600160a01b03919091166000908152600660209081526040808320938352929052205490565b6001600160a01b03811633146108915760405162461bcd60e51b815260206004820152602f60248201527f416363657373436f6e74726f6c3a2063616e206f6e6c792072656e6f756e636560448201527f20726f6c657320666f722073656c660000000000000000000000000000000000606482015260840161053f565b61089b82826111f2565b5050565b3360009081527ff70e363b3d7895af770c4a138460777d52eebd3cb9962ccc6b58721f6127bbc8602052604090205460ff166108da57600080fd5b6108ec816108e7600c5490565b611275565b6108fa600c80546001019055565b50565b61069183838360405180602001604052806000815250610bc3565b600061092360085490565b82106109975760405162461bcd60e51b815260206004820152602c60248201527f455243373231456e756d657261626c653a20676c6f62616c20696e646578206f60448201527f7574206f6620626f756e64730000000000000000000000000000000000000000606482015260840161053f565b600882815481106109b857634e487b7160e01b600052603260045260246000fd5b90600052602060002001549050919050565b6000818152600260205260408120546001600160a01b0316806104325760405162461bcd60e51b815260206004820152602960248201527f4552433732313a206f776e657220717565727920666f72206e6f6e657869737460448201527f656e7420746f6b656e0000000000000000000000000000000000000000000000606482015260840161053f565b60006001600160a01b038216610ad35760405162461bcd60e51b815260206004820152602a60248201527f4552433732313a2062616c616e636520717565727920666f7220746865207a6560448201527f726f206164647265737300000000000000000000000000000000000000000000606482015260840161053f565b506001600160a01b031660009081526003602052604090205490565b60606001805461044790612468565b6001600160a01b038216331415610b575760405162461bcd60e51b815260206004820152601960248201527f4552433732313a20617070726f766520746f2063616c6c657200000000000000604482015260640161053f565b3360008181526005602090815260408083206001600160a01b03871680855290835292819020805460ff191686151590811790915590519081529192917f17307eab39ab6107e8899845ad3d59bd9653f200f220920489ca2b5937696c31910160405180910390a35050565b610bcd3383610df4565b610c3f5760405162461bcd60e51b815260206004820152603160248201527f4552433732313a207472616e736665722063616c6c6572206973206e6f74206f60448201527f776e6572206e6f7220617070726f766564000000000000000000000000000000606482015260840161053f565b610c4b8484848461128f565b50505050565b6000610c5c60085490565b905090565b60606104328261130d565b6000828152600b6020526040902060010154610c8881336110d0565b61069183836111f2565b60006001600160e01b031982167f7965db0b000000000000000000000000000000000000000000000000000000001480610432575061043282611498565b6000818152600460205260409020805473ffffffffffffffffffffffffffffffffffffffff19166001600160a01b0384169081179091558190610d12826109ca565b6001600160a01b03167f8c5be1e5ebec7d5bd14f71427d1e84f3dd0314c0f7b2291e5b200ac8c7c3b92560405160405180910390a45050565b6000828152600260205260409020546001600160a01b0316610dd55760405162461bcd60e51b815260206004820152602e60248201527f45524337323155524953746f726167653a2055524920736574206f66206e6f6e60448201527f6578697374656e7420746f6b656e000000000000000000000000000000000000606482015260840161053f565b6000828152600a60209081526040909120825161069192840190611f39565b6000818152600260205260408120546001600160a01b0316610e6d5760405162461bcd60e51b815260206004820152602c60248201527f4552433732313a206f70657261746f7220717565727920666f72206e6f6e657860448201526b34b9ba32b73a103a37b5b2b760a11b606482015260840161053f565b6000610e78836109ca565b9050806001600160a01b0316846001600160a01b03161480610eb35750836001600160a01b0316610ea8846104ca565b6001600160a01b0316145b80610ee357506001600160a01b0380821660009081526005602090815260408083209388168352929052205460ff165b949350505050565b826001600160a01b0316610efe826109ca565b6001600160a01b031614610f7a5760405162461bcd60e51b815260206004820152602960248201527f4552433732313a207472616e73666572206f6620746f6b656e2074686174206960448201527f73206e6f74206f776e0000000000000000000000000000000000000000000000606482015260840161053f565b6001600160a01b038216610ff55760405162461bcd60e51b8152602060048201526024808201527f4552433732313a207472616e7366657220746f20746865207a65726f2061646460448201527f7265737300000000000000000000000000000000000000000000000000000000606482015260840161053f565b6110008383836114d6565b61100b600082610cd0565b6001600160a01b038316600090815260036020526040812080546001929061103490849061240e565b90915550506001600160a01b03821660009081526003602052604081208054600192906110629084906123c3565b9091555050600081815260026020526040808220805473ffffffffffffffffffffffffffffffffffffffff19166001600160a01b0386811691821790925591518493918716917fddf252ad1be2c89b69c2b068fc378daa952ba7f163c4a11628f55a4df523b3ef91a4505050565b6000828152600b602090815260408083206001600160a01b038516845290915290205460ff1661089b5761110e816001600160a01b031660146114e1565b6111198360206114e1565b60405160200161112a9291906122f3565b60408051601f198184030181529082905262461bcd60e51b825261053f916004016123b0565b6000828152600b602090815260408083206001600160a01b038516845290915290205460ff1661089b576000828152600b602090815260408083206001600160a01b03851684529091529020805460ff191660011790556111ae3390565b6001600160a01b0316816001600160a01b0316837f2f8788117e7eff1d82e926ec794901d17c78024a50270940304540a733656f0d60405160405180910390a45050565b6000828152600b602090815260408083206001600160a01b038516845290915290205460ff161561089b576000828152600b602090815260408083206001600160a01b0385168085529252808320805460ff1916905551339285917ff6391f5c32d9c69d2a47ea670b442974b53935d1edc7fd64eb21e047a839171b9190a45050565b61089b8282604051806020016040528060008152506116ec565b61129a848484610eeb565b6112a68484848461176a565b610c4b5760405162461bcd60e51b815260206004820152603260248201527f4552433732313a207472616e7366657220746f206e6f6e20455243373231526560448201527131b2b4bb32b91034b6b83632b6b2b73a32b960711b606482015260840161053f565b6000818152600260205260409020546060906001600160a01b031661139a5760405162461bcd60e51b815260206004820152603160248201527f45524337323155524953746f726167653a2055524920717565727920666f722060448201527f6e6f6e6578697374656e7420746f6b656e000000000000000000000000000000606482015260840161053f565b6000828152600a6020526040812080546113b390612468565b80601f01602080910402602001604051908101604052809291908181526020018280546113df90612468565b801561142c5780601f106114015761010080835404028352916020019161142c565b820191906000526020600020905b81548152906001019060200180831161140f57829003601f168201915b50505050509050600061144a60408051602081019091526000815290565b905080516000141561145d575092915050565b81511561148f5780826040516020016114779291906122c4565b60405160208183030381529060405292505050919050565b610ee3846118c2565b60006001600160e01b031982167f780e9d630000000000000000000000000000000000000000000000000000000014806104325750610432826119b7565b610691838383611a52565b606060006114f08360026123ef565b6114fb9060026123c3565b67ffffffffffffffff81111561152157634e487b7160e01b600052604160045260246000fd5b6040519080825280601f01601f19166020018201604052801561154b576020820181803683370190505b509050600360fc1b8160008151811061157457634e487b7160e01b600052603260045260246000fd5b60200101906001600160f81b031916908160001a9053507f7800000000000000000000000000000000000000000000000000000000000000816001815181106115cd57634e487b7160e01b600052603260045260246000fd5b60200101906001600160f81b031916908160001a90535060006115f18460026123ef565b6115fc9060016123c3565b90505b600181111561169d577f303132333435363738396162636465660000000000000000000000000000000085600f166010811061164b57634e487b7160e01b600052603260045260246000fd5b1a60f81b82828151811061166f57634e487b7160e01b600052603260045260246000fd5b60200101906001600160f81b031916908160001a90535060049490941c9361169681612451565b90506115ff565b5083156106b75760405162461bcd60e51b815260206004820181905260248201527f537472696e67733a20686578206c656e67746820696e73756666696369656e74604482015260640161053f565b6116f68383611b0a565b611703600084848461176a565b6106915760405162461bcd60e51b815260206004820152603260248201527f4552433732313a207472616e7366657220746f206e6f6e20455243373231526560448201527131b2b4bb32b91034b6b83632b6b2b73a32b960711b606482015260840161053f565b60006001600160a01b0384163b156118b757604051630a85bd0160e11b81526001600160a01b0385169063150b7a02906117ae903390899088908890600401612374565b602060405180830381600087803b1580156117c857600080fd5b505af19250505080156117f8575060408051601f3d908101601f191682019092526117f59181019061227c565b60015b61189d573d808015611826576040519150601f19603f3d011682016040523d82523d6000602084013e61182b565b606091505b5080516118955760405162461bcd60e51b815260206004820152603260248201527f4552433732313a207472616e7366657220746f206e6f6e20455243373231526560448201527131b2b4bb32b91034b6b83632b6b2b73a32b960711b606482015260840161053f565b805181602001fd5b6001600160e01b031916630a85bd0160e11b149050610ee3565b506001949350505050565b6000818152600260205260409020546060906001600160a01b031661194f5760405162461bcd60e51b815260206004820152602f60248201527f4552433732314d657461646174613a2055524920717565727920666f72206e6f60448201527f6e6578697374656e7420746f6b656e0000000000000000000000000000000000606482015260840161053f565b600061196660408051602081019091526000815290565b9050600081511161198657604051806020016040528060008152506106b7565b8061199084611c65565b6040516020016119a19291906122c4565b6040516020818303038152906040529392505050565b60006001600160e01b031982167f80ac58cd000000000000000000000000000000000000000000000000000000001480611a1a57506001600160e01b031982167f5b5e139f00000000000000000000000000000000000000000000000000000000145b8061043257507f01ffc9a7000000000000000000000000000000000000000000000000000000006001600160e01b0319831614610432565b6001600160a01b038316611aad57611aa881600880546000838152600960205260408120829055600182018355919091527ff3f7a9fe364faab93b216da50a3214154f22a0a2b415b23a84c8169e8b636ee30155565b611ad0565b816001600160a01b0316836001600160a01b031614611ad057611ad08382611d7f565b6001600160a01b038216611ae75761069181611e1c565b826001600160a01b0316826001600160a01b031614610691576106918282611ef5565b6001600160a01b038216611b605760405162461bcd60e51b815260206004820181905260248201527f4552433732313a206d696e7420746f20746865207a65726f2061646472657373604482015260640161053f565b6000818152600260205260409020546001600160a01b031615611bc55760405162461bcd60e51b815260206004820152601c60248201527f4552433732313a20746f6b656e20616c7265616479206d696e74656400000000604482015260640161053f565b611bd1600083836114d6565b6001600160a01b0382166000908152600360205260408120805460019290611bfa9084906123c3565b9091555050600081815260026020526040808220805473ffffffffffffffffffffffffffffffffffffffff19166001600160a01b03861690811790915590518392907fddf252ad1be2c89b69c2b068fc378daa952ba7f163c4a11628f55a4df523b3ef908290a45050565b606081611c895750506040805180820190915260018152600360fc1b602082015290565b8160005b8115611cb35780611c9d816124a3565b9150611cac9050600a836123db565b9150611c8d565b60008167ffffffffffffffff811115611cdc57634e487b7160e01b600052604160045260246000fd5b6040519080825280601f01601f191660200182016040528015611d06576020820181803683370190505b5090505b8415610ee357611d1b60018361240e565b9150611d28600a866124be565b611d339060306123c3565b60f81b818381518110611d5657634e487b7160e01b600052603260045260246000fd5b60200101906001600160f81b031916908160001a905350611d78600a866123db565b9450611d0a565b60006001611d8c84610a55565b611d96919061240e565b600083815260076020526040902054909150808214611de9576001600160a01b03841660009081526006602090815260408083208584528252808320548484528184208190558352600790915290208190555b5060009182526007602090815260408084208490556001600160a01b039094168352600681528383209183525290812055565b600854600090611e2e9060019061240e565b60008381526009602052604081205460088054939450909284908110611e6457634e487b7160e01b600052603260045260246000fd5b906000526020600020015490508060088381548110611e9357634e487b7160e01b600052603260045260246000fd5b6000918252602080832090910192909255828152600990915260408082208490558582528120556008805480611ed957634e487b7160e01b600052603160045260246000fd5b6001900381819060005260206000200160009055905550505050565b6000611f0083610a55565b6001600160a01b039093166000908152600660209081526040808320868452825280832085905593825260079052919091209190915550565b828054611f4590612468565b90600052602060002090601f016020900481019282611f675760008555611fad565b82601f10611f8057805160ff1916838001178555611fad565b82800160010185558215611fad579182015b82811115611fad578251825591602001919060010190611f92565b50611fb9929150611fbd565b5090565b5b80821115611fb95760008155600101611fbe565b600067ffffffffffffffff80841115611fed57611fed6124fe565b604051601f8501601f19908116603f01168101908282118183101715612015576120156124fe565b8160405280935085815286868601111561202e57600080fd5b858560208301376000602087830101525050509392505050565b80356001600160a01b038116811461205f57600080fd5b919050565b600060208284031215612075578081fd5b6106b782612048565b60008060408385031215612090578081fd5b61209983612048565b91506120a760208401612048565b90509250929050565b6000806000606084860312156120c4578081fd5b6120cd84612048565b92506120db60208501612048565b9150604084013590509250925092565b60008060008060808587031215612100578081fd5b61210985612048565b935061211760208601612048565b925060408501359150606085013567ffffffffffffffff811115612139578182fd5b8501601f81018713612149578182fd5b61215887823560208401611fd2565b91505092959194509250565b60008060408385031215612176578182fd5b61217f83612048565b915060208301358015158114612193578182fd5b809150509250929050565b600080604083850312156121b0578182fd5b6121b983612048565b9150602083013567ffffffffffffffff8111156121d4578182fd5b8301601f810185136121e4578182fd5b6121f385823560208401611fd2565b9150509250929050565b6000806040838503121561220f578182fd5b61221883612048565b946020939093013593505050565b600060208284031215612237578081fd5b5035919050565b60008060408385031215612250578182fd5b823591506120a760208401612048565b600060208284031215612271578081fd5b81356106b781612514565b60006020828403121561228d578081fd5b81516106b781612514565b600081518084526122b0816020860160208601612425565b601f01601f19169290920160200192915050565b600083516122d6818460208801612425565b8351908301906122ea818360208801612425565b01949350505050565b7f416363657373436f6e74726f6c3a206163636f756e742000000000000000000081526000835161232b816017850160208801612425565b7f206973206d697373696e6720726f6c65200000000000000000000000000000006017918401918201528351612368816028840160208801612425565b01602801949350505050565b60006001600160a01b038087168352808616602084015250836040830152608060608301526123a66080830184612298565b9695505050505050565b6020815260006106b76020830184612298565b600082198211156123d6576123d66124d2565b500190565b6000826123ea576123ea6124e8565b500490565b6000816000190483118215151615612409576124096124d2565b500290565b600082821015612420576124206124d2565b500390565b60005b83811015612440578181015183820152602001612428565b83811115610c4b5750506000910152565b600081612460576124606124d2565b506000190190565b600181811c9082168061247c57607f821691505b6020821081141561249d57634e487b7160e01b600052602260045260246000fd5b50919050565b60006000198214156124b7576124b76124d2565b5060010190565b6000826124cd576124cd6124e8565b500690565b634e487b7160e01b600052601160045260246000fd5b634e487b7160e01b600052601260045260246000fd5b634e487b7160e01b600052604160045260246000fd5b6001600160e01b0319811681146108fa57600080fdfea2646970667358221220449655682ebf777a7e87a1f137575156df79c5608ba3fcd0de14560a0611a06264736f6c63430008040033",
  "linkReferences": {},
  "deployedLinkReferences": {}
}