{
  "_format": "hh-sol-artifact-1",
  "contractName": "KhyberFarm",
  "sourceName": "contracts/KhyberFarm.sol",
  "abi": [
    {
      "inputs": [
        {
          "internalType": "contract IERC20",
          "name": "_daiToken",
          "type": "address"
        },
        {
          "internalType": "contract KhyberToken",
          "name": "_khyberToken",
          "type": "address"
        },
        {
          "internalType": "contract KhyberCrystal",
          "name": "_khrystal",
          "type": "address"
        },
        {
          "internalType": "contract Lottery",
          "name": "_lottery",
          "type": "address"
        },
        {
          "internalType": "uint256",
          "name": "_nftPrice",
          "type": "uint256"
        }
      ],
      "stateMutability": "nonpayable",
      "type": "constructor"
    },
    {
      "anonymous": false,
      "inputs": [
        {
          "indexed": true,
          "internalType": "address",
          "name": "to",
          "type": "address"
        },
        {
          "indexed": true,
          "internalType": "uint256",
          "name": "tokenId",
          "type": "uint256"
        }
      ],
      "name": "MintNFT",
      "type": "event"
    },
    {
      "anonymous": false,
      "inputs": [
        {
          "indexed": true,
          "internalType": "address",
          "name": "from",
          "type": "address"
        },
        {
          "indexed": false,
          "internalType": "uint256",
          "name": "amount",
          "type": "uint256"
        }
      ],
      "name": "Stake",
      "type": "event"
    },
    {
      "anonymous": false,
      "inputs": [
        {
          "indexed": true,
          "internalType": "address",
          "name": "from",
          "type": "address"
        },
        {
          "indexed": false,
          "internalType": "uint256",
          "name": "amount",
          "type": "uint256"
        }
      ],
      "name": "Unstake",
      "type": "event"
    },
    {
      "anonymous": false,
      "inputs": [
        {
          "indexed": true,
          "internalType": "address",
          "name": "to",
          "type": "address"
        },
        {
          "indexed": false,
          "internalType": "uint256",
          "name": "amount",
          "type": "uint256"
        }
      ],
      "name": "YieldWithdraw",
      "type": "event"
    },
    {
      "inputs": [
        {
          "internalType": "address",
          "name": "user",
          "type": "address"
        }
      ],
      "name": "calculateYieldTime",
      "outputs": [
        {
          "internalType": "uint256",
          "name": "",
          "type": "uint256"
        }
      ],
      "stateMutability": "view",
      "type": "function"
    },
    {
      "inputs": [
        {
          "internalType": "address",
          "name": "user",
          "type": "address"
        }
      ],
      "name": "calculateYieldTotal",
      "outputs": [
        {
          "internalType": "uint256",
          "name": "",
          "type": "uint256"
        }
      ],
      "stateMutability": "view",
      "type": "function"
    },
    {
      "inputs": [],
      "name": "daiToken",
      "outputs": [
        {
          "internalType": "contract IERC20",
          "name": "",
          "type": "address"
        }
      ],
      "stateMutability": "view",
      "type": "function"
    },
    {
      "inputs": [
        {
          "internalType": "address",
          "name": "",
          "type": "address"
        }
      ],
      "name": "isStaking",
      "outputs": [
        {
          "internalType": "bool",
          "name": "",
          "type": "bool"
        }
      ],
      "stateMutability": "view",
      "type": "function"
    },
    {
      "inputs": [],
      "name": "khrystal",
      "outputs": [
        {
          "internalType": "contract KhyberCrystal",
          "name": "",
          "type": "address"
        }
      ],
      "stateMutability": "view",
      "type": "function"
    },
    {
      "inputs": [
        {
          "internalType": "address",
          "name": "",
          "type": "address"
        }
      ],
      "name": "khyberBalance",
      "outputs": [
        {
          "internalType": "uint256",
          "name": "",
          "type": "uint256"
        }
      ],
      "stateMutability": "view",
      "type": "function"
    },
    {
      "inputs": [],
      "name": "khyberToken",
      "outputs": [
        {
          "internalType": "contract KhyberToken",
          "name": "",
          "type": "address"
        }
      ],
      "stateMutability": "view",
      "type": "function"
    },
    {
      "inputs": [],
      "name": "lottery",
      "outputs": [
        {
          "internalType": "contract Lottery",
          "name": "",
          "type": "address"
        }
      ],
      "stateMutability": "view",
      "type": "function"
    },
    {
      "inputs": [
        {
          "internalType": "address",
          "name": "user",
          "type": "address"
        },
        {
          "internalType": "string",
          "name": "tokenURI",
          "type": "string"
        }
      ],
      "name": "mintNFT",
      "outputs": [],
      "stateMutability": "nonpayable",
      "type": "function"
    },
    {
      "inputs": [],
      "name": "name",
      "outputs": [
        {
          "internalType": "string",
          "name": "",
          "type": "string"
        }
      ],
      "stateMutability": "view",
      "type": "function"
    },
    {
      "inputs": [
        {
          "internalType": "string",
          "name": "",
          "type": "string"
        }
      ],
      "name": "nftCount",
      "outputs": [
        {
          "internalType": "uint256",
          "name": "",
          "type": "uint256"
        }
      ],
      "stateMutability": "view",
      "type": "function"
    },
    {
      "inputs": [
        {
          "internalType": "uint256",
          "name": "amount",
          "type": "uint256"
        }
      ],
      "name": "stake",
      "outputs": [],
      "stateMutability": "nonpayable",
      "type": "function"
    },
    {
      "inputs": [
        {
          "internalType": "address",
          "name": "",
          "type": "address"
        }
      ],
      "name": "stakingBalance",
      "outputs": [
        {
          "internalType": "uint256",
          "name": "",
          "type": "uint256"
        }
      ],
      "stateMutability": "view",
      "type": "function"
    },
    {
      "inputs": [
        {
          "internalType": "address",
          "name": "",
          "type": "address"
        }
      ],
      "name": "startTime",
      "outputs": [
        {
          "internalType": "uint256",
          "name": "",
          "type": "uint256"
        }
      ],
      "stateMutability": "view",
      "type": "function"
    },
    {
      "inputs": [
        {
          "internalType": "uint256",
          "name": "amount",
          "type": "uint256"
        }
      ],
      "name": "unstake",
      "outputs": [],
      "stateMutability": "nonpayable",
      "type": "function"
    },
    {
      "inputs": [],
      "name": "withdrawYield",
      "outputs": [],
      "stateMutability": "nonpayable",
      "type": "function"
    }
  ],
  "bytecode": "0x60c0604052600b60808190526a4b6879626572204661726d60a81b60a09081526200002e9160059190620000b6565b503480156200003c57600080fd5b5060405162001179380380620011798339810160408190526200005f916200015c565b600680546001600160a01b03199081166001600160a01b03978816179091556007805482169587169590951790945560088054851693861693909317909255600980549093169316929092179055600a5562000225565b828054620000c490620001cf565b90600052602060002090601f016020900481019282620000e8576000855562000133565b82601f106200010357805160ff191683800117855562000133565b8280016001018555821562000133579182015b828111156200013357825182559160200191906001019062000116565b506200014192915062000145565b5090565b5b8082111562000141576000815560010162000146565b600080600080600060a0868803121562000174578081fd5b855162000181816200020c565b602087015190955062000194816200020c565b6040870151909450620001a7816200020c565b6060870151909350620001ba816200020c565b80925050608086015190509295509295909350565b600181811c90821680620001e457607f821691505b602082108114156200020657634e487b7160e01b600052602260045260246000fd5b50919050565b6001600160a01b03811681146200022257600080fd5b50565b610f4480620002356000396000f3fe608060405234801561001057600080fd5b50600436106101005760003560e01c80636f49712b11610097578063be22f54611610066578063be22f5461461026a578063e507a8a41461027d578063eacabe1414610285578063fc4991f51461029857600080fd5b80636f49712b146101fe578063980d611614610231578063a694fc3a14610244578063ba13a5721461025757600080fd5b806345bc78ab116100d357806345bc78ab14610180578063518ea824146101a05780636b04869e146101cb5780636e1dc66e146101de57600080fd5b8063068726611461010557806306fdde031461012b57806313f54949146101405780632e17de781461016b575b600080fd5b610118610113366004610c81565b6102b8565b6040519081526020015b60405180910390f35b61013361032e565b6040516101229190610ddb565b600754610153906001600160a01b031681565b6040516001600160a01b039091168152602001610122565b61017e610179366004610d41565b6103bc565b005b61011861018e366004610c81565b60006020819052908152604090205481565b6101186101ae366004610d0e565b805160208183018101805160048252928201919093012091525481565b600854610153906001600160a01b031681565b6101186101ec366004610c81565b60026020526000908152604090205481565b61022161020c366004610c81565b60016020526000908152604090205460ff1681565b6040519015158152602001610122565b61011861023f366004610c81565b61059e565b61017e610252366004610d41565b6105cd565b600954610153906001600160a01b031681565b600654610153906001600160a01b031681565b61017e61081c565b61017e610293366004610ca2565b61098b565b6101186102a6366004610c81565b60036020526000908152604090205481565b6000806102c48361059e565b6102d690670de0b6b3a7640000610e26565b90506201518060006102e88284610e06565b6001600160a01b03861660009081526020819052604081205491925090670de0b6b3a76400009061031a908490610e26565b6103249190610e06565b9695505050505050565b6005805461033b90610e8c565b80601f016020809104026020016040519081016040528092919081815260200182805461036790610e8c565b80156103b45780601f10610389576101008083540402835291602001916103b4565b820191906000526020600020905b81548152906001019060200180831161039757829003601f168201915b505050505081565b33600090815260208181526040808320546001909252909120805460ff19169183111591821790556104355760405162461bcd60e51b815260206004820152601260248201527f4e6f7468696e6720746f20756e7374616b65000000000000000000000000000060448201526064015b60405180910390fd5b6000610440336102b8565b3360009081526002602090815260408083204290559082905281208054919492935082918590610471908490610e45565b90915550506006546040517fa9059cbb000000000000000000000000000000000000000000000000000000008152336004820152602481018390526001600160a01b039091169063a9059cbb90604401602060405180830381600087803b1580156104db57600080fd5b505af11580156104ef573d6000803e3d6000fd5b505050506040513d601f19601f820116820180604052508101906105139190610cee565b503360009081526003602052604081208054849290610533908490610dee565b90915550503360009081526020819052604090205461056457336000908152600160205260409020805460ff191690555b60405181815233907f85082129d87b2fe11527cb1b3b7a520aeb5aa6913f88a3d8757fe40d1db02fdd9060200160405180910390a2505050565b6001600160a01b038116600090815260026020526040812054429082906105c59083610e45565b949350505050565b60008111801561065657506006546040516370a0823160e01b815233600482015282916001600160a01b0316906370a082319060240160206040518083038186803b15801561061b57600080fd5b505afa15801561062f573d6000803e3d6000fd5b505050506040513d601f19601f820116820180604052508101906106539190610d59565b10155b6106a25760405162461bcd60e51b815260206004820152601c60248201527f596f752063616e6e6f74207374616b65207a65726f20746f6b656e7300000000604482015260640161042c565b3360009081526001602081905260409091205460ff16151514156106f65760006106cb336102b8565b336000908152600360205260408120805492935083929091906106ef908490610dee565b9091555050505b6006546040517f23b872dd000000000000000000000000000000000000000000000000000000008152336004820152306024820152604481018390526001600160a01b03909116906323b872dd90606401602060405180830381600087803b15801561076157600080fd5b505af1158015610775573d6000803e3d6000fd5b505050506040513d601f19601f820116820180604052508101906107999190610cee565b5033600090815260208190526040812080548392906107b9908490610dee565b9091555050336000818152600260209081526040808320429055600180835292819020805460ff191690931790925590518381527febedb8b3c678666e7f36970bc8f57abf6d8fa2e828c0da91ea5b75bf68ed101a91015b60405180910390a250565b6000610827336102b8565b9050600081118061084657503360009081526003602052604090205415155b6108925760405162461bcd60e51b815260206004820152601360248201527f4e6f7468696e6720746f20776974686472617700000000000000000000000000604482015260640161042c565b33600090815260036020526040902054156108c95733600090815260036020526040812080549190556108c58183610dee565b9150505b336000818152600260205260409081902042905560075490517f40c10f190000000000000000000000000000000000000000000000000000000081526004810192909252602482018390526001600160a01b0316906340c10f1990604401600060405180830381600087803b15801561094157600080fd5b505af1158015610955573d6000803e3d6000fd5b50506040518381523392507f92044e3943309ee5950e21bc7421d02c1df75f0df33c0d97c1143687b49a4c579150602001610811565b600a546007546040516370a0823160e01b81523360048201526001600160a01b03909116906370a082319060240160206040518083038186803b1580156109d157600080fd5b505afa1580156109e5573d6000803e3d6000fd5b505050506040513d601f19601f82011682018060405250810190610a099190610d59565b1015610a575760405162461bcd60e51b815260206004820152601160248201527f4e6f7420656e6f756768204b4859424552000000000000000000000000000000604482015260640161042c565b600954600a546040517f57714c3e00000000000000000000000000000000000000000000000000000000815233600482015260248101919091526001600160a01b03909116906357714c3e90604401600060405180830381600087803b158015610ac057600080fd5b505af1158015610ad4573d6000803e3d6000fd5b50506008546040517f110bcd45000000000000000000000000000000000000000000000000000000008152600093506001600160a01b03909116915063110bcd4590610b269086908690600401610db9565b602060405180830381600087803b158015610b4057600080fd5b505af1158015610b54573d6000803e3d6000fd5b505050506040513d601f19601f82011682018060405250810190610b789190610d59565b9050600482604051610b8a9190610d9d565b9081526040519081900360200190208054906000610ba783610ec7565b9091555050604051819033907f1f89f147a58d1673945cf416187db98efc8208408c011b91887acd59fd8523c390600090a3505050565b80356001600160a01b0381168114610bf557600080fd5b919050565b600082601f830112610c0a578081fd5b813567ffffffffffffffff80821115610c2557610c25610ef8565b604051601f8301601f19908116603f01168101908282118183101715610c4d57610c4d610ef8565b81604052838152866020858801011115610c65578485fd5b8360208701602083013792830160200193909352509392505050565b600060208284031215610c92578081fd5b610c9b82610bde565b9392505050565b60008060408385031215610cb4578081fd5b610cbd83610bde565b9150602083013567ffffffffffffffff811115610cd8578182fd5b610ce485828601610bfa565b9150509250929050565b600060208284031215610cff578081fd5b81518015158114610c9b578182fd5b600060208284031215610d1f578081fd5b813567ffffffffffffffff811115610d35578182fd5b6105c584828501610bfa565b600060208284031215610d52578081fd5b5035919050565b600060208284031215610d6a578081fd5b5051919050565b60008151808452610d89816020860160208601610e5c565b601f01601f19169290920160200192915050565b60008251610daf818460208701610e5c565b9190910192915050565b6001600160a01b03831681526040602082015260006105c56040830184610d71565b602081526000610c9b6020830184610d71565b60008219821115610e0157610e01610ee2565b500190565b600082610e2157634e487b7160e01b81526012600452602481fd5b500490565b6000816000190483118215151615610e4057610e40610ee2565b500290565b600082821015610e5757610e57610ee2565b500390565b60005b83811015610e77578181015183820152602001610e5f565b83811115610e86576000848401525b50505050565b600181811c90821680610ea057607f821691505b60208210811415610ec157634e487b7160e01b600052602260045260246000fd5b50919050565b6000600019821415610edb57610edb610ee2565b5060010190565b634e487b7160e01b600052601160045260246000fd5b634e487b7160e01b600052604160045260246000fdfea26469706673582212206e39c536423d3979dac3a810b62ea3d21edb80263002e510b6da3251b37d407464736f6c63430008040033",
  "linkReferences": {},
  "deployedLinkReferences": {}
}