{
  "_format": "hh-sol-artifact-1",
  "contractName": "KhyberFarm",
  "sourceName": "contracts/KhyberFarm.sol",
  "abi": [
    {
      "inputs": [
        {
          "internalType": "contract IERC20",
          "name": "_daiToken",
          "type": "address"
        },
        {
          "internalType": "contract KhyberToken",
          "name": "_khyrstalToken",
          "type": "address"
        },
        {
          "internalType": "contract KhyberCrystal",
          "name": "_khrystal",
          "type": "address"
        },
        {
          "internalType": "contract Lottery",
          "name": "_lottery",
          "type": "address"
        },
        {
          "internalType": "uint256",
          "name": "_nftPrice",
          "type": "uint256"
        }
      ],
      "stateMutability": "nonpayable",
      "type": "constructor"
    },
    {
      "anonymous": false,
      "inputs": [
        {
          "indexed": true,
          "internalType": "address",
          "name": "to",
          "type": "address"
        },
        {
          "indexed": true,
          "internalType": "uint256",
          "name": "tokenId",
          "type": "uint256"
        }
      ],
      "name": "MintNFT",
      "type": "event"
    },
    {
      "anonymous": false,
      "inputs": [
        {
          "indexed": true,
          "internalType": "address",
          "name": "from",
          "type": "address"
        },
        {
          "indexed": false,
          "internalType": "uint256",
          "name": "amount",
          "type": "uint256"
        }
      ],
      "name": "Stake",
      "type": "event"
    },
    {
      "anonymous": false,
      "inputs": [
        {
          "indexed": true,
          "internalType": "address",
          "name": "from",
          "type": "address"
        },
        {
          "indexed": false,
          "internalType": "uint256",
          "name": "amount",
          "type": "uint256"
        }
      ],
      "name": "Unstake",
      "type": "event"
    },
    {
      "anonymous": false,
      "inputs": [
        {
          "indexed": true,
          "internalType": "address",
          "name": "to",
          "type": "address"
        },
        {
          "indexed": false,
          "internalType": "uint256",
          "name": "amount",
          "type": "uint256"
        }
      ],
      "name": "YieldWithdraw",
      "type": "event"
    },
    {
      "inputs": [
        {
          "internalType": "address",
          "name": "user",
          "type": "address"
        }
      ],
      "name": "calculateYieldTime",
      "outputs": [
        {
          "internalType": "uint256",
          "name": "",
          "type": "uint256"
        }
      ],
      "stateMutability": "view",
      "type": "function"
    },
    {
      "inputs": [
        {
          "internalType": "address",
          "name": "user",
          "type": "address"
        }
      ],
      "name": "calculateYieldTotal",
      "outputs": [
        {
          "internalType": "uint256",
          "name": "",
          "type": "uint256"
        }
      ],
      "stateMutability": "view",
      "type": "function"
    },
    {
      "inputs": [],
      "name": "daiToken",
      "outputs": [
        {
          "internalType": "contract IERC20",
          "name": "",
          "type": "address"
        }
      ],
      "stateMutability": "view",
      "type": "function"
    },
    {
      "inputs": [
        {
          "internalType": "address",
          "name": "",
          "type": "address"
        }
      ],
      "name": "isStaking",
      "outputs": [
        {
          "internalType": "bool",
          "name": "",
          "type": "bool"
        }
      ],
      "stateMutability": "view",
      "type": "function"
    },
    {
      "inputs": [],
      "name": "khrystal",
      "outputs": [
        {
          "internalType": "contract KhyberCrystal",
          "name": "",
          "type": "address"
        }
      ],
      "stateMutability": "view",
      "type": "function"
    },
    {
      "inputs": [
        {
          "internalType": "address",
          "name": "",
          "type": "address"
        }
      ],
      "name": "khyrstalBalance",
      "outputs": [
        {
          "internalType": "uint256",
          "name": "",
          "type": "uint256"
        }
      ],
      "stateMutability": "view",
      "type": "function"
    },
    {
      "inputs": [],
      "name": "khyrstalToken",
      "outputs": [
        {
          "internalType": "contract KhyberToken",
          "name": "",
          "type": "address"
        }
      ],
      "stateMutability": "view",
      "type": "function"
    },
    {
      "inputs": [],
      "name": "lottery",
      "outputs": [
        {
          "internalType": "contract Lottery",
          "name": "",
          "type": "address"
        }
      ],
      "stateMutability": "view",
      "type": "function"
    },
    {
      "inputs": [
        {
          "internalType": "address",
          "name": "user",
          "type": "address"
        },
        {
          "internalType": "string",
          "name": "tokenURI",
          "type": "string"
        }
      ],
      "name": "mintNFT",
      "outputs": [],
      "stateMutability": "nonpayable",
      "type": "function"
    },
    {
      "inputs": [],
      "name": "name",
      "outputs": [
        {
          "internalType": "string",
          "name": "",
          "type": "string"
        }
      ],
      "stateMutability": "view",
      "type": "function"
    },
    {
      "inputs": [
        {
          "internalType": "string",
          "name": "",
          "type": "string"
        }
      ],
      "name": "nftCount",
      "outputs": [
        {
          "internalType": "uint256",
          "name": "",
          "type": "uint256"
        }
      ],
      "stateMutability": "view",
      "type": "function"
    },
    {
      "inputs": [
        {
          "internalType": "uint256",
          "name": "amount",
          "type": "uint256"
        }
      ],
      "name": "stake",
      "outputs": [],
      "stateMutability": "nonpayable",
      "type": "function"
    },
    {
      "inputs": [
        {
          "internalType": "address",
          "name": "",
          "type": "address"
        }
      ],
      "name": "stakingBalance",
      "outputs": [
        {
          "internalType": "uint256",
          "name": "",
          "type": "uint256"
        }
      ],
      "stateMutability": "view",
      "type": "function"
    },
    {
      "inputs": [
        {
          "internalType": "address",
          "name": "",
          "type": "address"
        }
      ],
      "name": "startTime",
      "outputs": [
        {
          "internalType": "uint256",
          "name": "",
          "type": "uint256"
        }
      ],
      "stateMutability": "view",
      "type": "function"
    },
    {
      "inputs": [
        {
          "internalType": "uint256",
          "name": "amount",
          "type": "uint256"
        }
      ],
      "name": "unstake",
      "outputs": [],
      "stateMutability": "nonpayable",
      "type": "function"
    },
    {
      "inputs": [],
      "name": "withdrawYield",
      "outputs": [],
      "stateMutability": "nonpayable",
      "type": "function"
    }
  ],
  "bytecode": "0x60c0604052600b60808190526a4b6879626572204661726d60a81b60a09081526200002e9160059190620000b6565b503480156200003c57600080fd5b50604051620010dd380380620010dd8339810160408190526200005f916200015c565b600680546001600160a01b03199081166001600160a01b03978816179091556007805482169587169590951790945560088054851693861693909317909255600980549093169316929092179055600a5562000225565b828054620000c490620001cf565b90600052602060002090601f016020900481019282620000e8576000855562000133565b82601f106200010357805160ff191683800117855562000133565b8280016001018555821562000133579182015b828111156200013357825182559160200191906001019062000116565b506200014192915062000145565b5090565b5b8082111562000141576000815560010162000146565b600080600080600060a0868803121562000174578081fd5b855162000181816200020c565b602087015190955062000194816200020c565b6040870151909450620001a7816200020c565b6060870151909350620001ba816200020c565b80925050608086015190509295509295909350565b600181811c90821680620001e457607f821691505b602082108114156200020657634e487b7160e01b600052602260045260246000fd5b50919050565b6001600160a01b03811681146200022257600080fd5b50565b610ea880620002356000396000f3fe608060405234801561001057600080fd5b50600436106101005760003560e01c80636f49712b11610097578063be22f54611610066578063be22f54614610277578063e507a8a41461028a578063eacabe1414610292578063ef65c45e146102a557600080fd5b80636f49712b1461020b578063980d61161461023e578063a694fc3a14610251578063ba13a5721461026457600080fd5b806345bc78ab116100d357806345bc78ab14610175578063518ea824146101955780636b04869e146101c05780636e1dc66e146101eb57600080fd5b8063068726611461010557806306fdde031461012b5780632e17de781461014057806330343ed914610155575b600080fd5b610118610113366004610be3565b6102b8565b6040519081526020015b60405180910390f35b61013361032e565b6040516101229190610d3f565b61015361014e366004610ca3565b6103bc565b005b610118610163366004610be3565b60036020526000908152604090205481565b610118610183366004610be3565b60006020819052908152604090205481565b6101186101a3366004610c70565b805160208183018101805160048252928201919093012091525481565b6008546101d3906001600160a01b031681565b6040516001600160a01b039091168152602001610122565b6101186101f9366004610be3565b60026020526000908152604090205481565b61022e610219366004610be3565b60016020526000908152604090205460ff1681565b6040519015158152602001610122565b61011861024c366004610be3565b61057a565b61015361025f366004610ca3565b6105a9565b6009546101d3906001600160a01b031681565b6006546101d3906001600160a01b031681565b6101536107df565b6101536102a0366004610c04565b61092b565b6007546101d3906001600160a01b031681565b6000806102c48361057a565b6102d690670de0b6b3a7640000610d8a565b90506201518060006102e88284610d6a565b6001600160a01b03861660009081526020819052604081205491925090670de0b6b3a76400009061031a908490610d8a565b6103249190610d6a565b9695505050505050565b6005805461033b90610df0565b80601f016020809104026020016040519081016040528092919081815260200182805461036790610df0565b80156103b45780601f10610389576101008083540402835291602001916103b4565b820191906000526020600020905b81548152906001019060200180831161039757829003601f168201915b505050505081565b33600090815260208181526040808320546001909252909120805460ff191691831115918217905561042a5760405162461bcd60e51b81526020600482015260126024820152714e6f7468696e6720746f20756e7374616b6560701b60448201526064015b60405180910390fd5b6000610435336102b8565b3360009081526002602090815260408083204290559082905281208054919492935082918590610466908490610da9565b909155505060065460405163a9059cbb60e01b8152336004820152602481018390526001600160a01b039091169063a9059cbb90604401602060405180830381600087803b1580156104b757600080fd5b505af11580156104cb573d6000803e3d6000fd5b505050506040513d601f19601f820116820180604052508101906104ef9190610c50565b50336000908152600360205260408120805484929061050f908490610d52565b90915550503360009081526020819052604090205461054057336000908152600160205260409020805460ff191690555b60405181815233907f85082129d87b2fe11527cb1b3b7a520aeb5aa6913f88a3d8757fe40d1db02fdd9060200160405180910390a2505050565b6001600160a01b038116600090815260026020526040812054429082906105a19083610da9565b949350505050565b60008111801561063257506006546040516370a0823160e01b815233600482015282916001600160a01b0316906370a082319060240160206040518083038186803b1580156105f757600080fd5b505afa15801561060b573d6000803e3d6000fd5b505050506040513d601f19601f8201168201806040525081019061062f9190610cbb565b10155b61067e5760405162461bcd60e51b815260206004820152601c60248201527f596f752063616e6e6f74207374616b65207a65726f20746f6b656e73000000006044820152606401610421565b3360009081526001602081905260409091205460ff16151514156106d25760006106a7336102b8565b336000908152600360205260408120805492935083929091906106cb908490610d52565b9091555050505b6006546040516323b872dd60e01b8152336004820152306024820152604481018390526001600160a01b03909116906323b872dd90606401602060405180830381600087803b15801561072457600080fd5b505af1158015610738573d6000803e3d6000fd5b505050506040513d601f19601f8201168201806040525081019061075c9190610c50565b50336000908152602081905260408120805483929061077c908490610d52565b9091555050336000818152600260209081526040808320429055600180835292819020805460ff191690931790925590518381527febedb8b3c678666e7f36970bc8f57abf6d8fa2e828c0da91ea5b75bf68ed101a91015b60405180910390a250565b60006107ea336102b8565b9050600081118061080957503360009081526003602052604090205415155b61084b5760405162461bcd60e51b81526020600482015260136024820152724e6f7468696e6720746f20776974686472617760681b6044820152606401610421565b336000908152600360205260409020541561088257336000908152600360205260408120805491905561087e8183610d52565b9150505b336000818152600260205260409081902042905560075490516340c10f1960e01b81526004810192909252602482018390526001600160a01b0316906340c10f1990604401600060405180830381600087803b1580156108e157600080fd5b505af11580156108f5573d6000803e3d6000fd5b50506040518381523392507f92044e3943309ee5950e21bc7421d02c1df75f0df33c0d97c1143687b49a4c5791506020016107d4565b600a546007546040516370a0823160e01b81523360048201526001600160a01b03909116906370a082319060240160206040518083038186803b15801561097157600080fd5b505afa158015610985573d6000803e3d6000fd5b505050506040513d601f19601f820116820180604052508101906109a99190610cbb565b10156109eb5760405162461bcd60e51b81526020600482015260116024820152702737ba1032b737bab3b41025a42ca122a960791b6044820152606401610421565b600954600a54604051632bb8a61f60e11b815233600482015260248101919091526001600160a01b03909116906357714c3e90604401600060405180830381600087803b158015610a3b57600080fd5b505af1158015610a4f573d6000803e3d6000fd5b505060085460405163110bcd4560e01b8152600093506001600160a01b03909116915063110bcd4590610a889086908690600401610d1b565b602060405180830381600087803b158015610aa257600080fd5b505af1158015610ab6573d6000803e3d6000fd5b505050506040513d601f19601f82011682018060405250810190610ada9190610cbb565b9050600482604051610aec9190610cff565b9081526040519081900360200190208054906000610b0983610e2b565b9091555050604051819033907f1f89f147a58d1673945cf416187db98efc8208408c011b91887acd59fd8523c390600090a3505050565b80356001600160a01b0381168114610b5757600080fd5b919050565b600082601f830112610b6c578081fd5b813567ffffffffffffffff80821115610b8757610b87610e5c565b604051601f8301601f19908116603f01168101908282118183101715610baf57610baf610e5c565b81604052838152866020858801011115610bc7578485fd5b8360208701602083013792830160200193909352509392505050565b600060208284031215610bf4578081fd5b610bfd82610b40565b9392505050565b60008060408385031215610c16578081fd5b610c1f83610b40565b9150602083013567ffffffffffffffff811115610c3a578182fd5b610c4685828601610b5c565b9150509250929050565b600060208284031215610c61578081fd5b81518015158114610bfd578182fd5b600060208284031215610c81578081fd5b813567ffffffffffffffff811115610c97578182fd5b6105a184828501610b5c565b600060208284031215610cb4578081fd5b5035919050565b600060208284031215610ccc578081fd5b5051919050565b60008151808452610ceb816020860160208601610dc0565b601f01601f19169290920160200192915050565b60008251610d11818460208701610dc0565b9190910192915050565b6001600160a01b03831681526040602082018190526000906105a190830184610cd3565b602081526000610bfd6020830184610cd3565b60008219821115610d6557610d65610e46565b500190565b600082610d8557634e487b7160e01b81526012600452602481fd5b500490565b6000816000190483118215151615610da457610da4610e46565b500290565b600082821015610dbb57610dbb610e46565b500390565b60005b83811015610ddb578181015183820152602001610dc3565b83811115610dea576000848401525b50505050565b600181811c90821680610e0457607f821691505b60208210811415610e2557634e487b7160e01b600052602260045260246000fd5b50919050565b6000600019821415610e3f57610e3f610e46565b5060010190565b634e487b7160e01b600052601160045260246000fd5b634e487b7160e01b600052604160045260246000fdfea264697066735822122044a7b1b3f0ac467fdd8e4ad80783fb043bd3057aa56c4bc010b47fc300cdafdc64736f6c63430008040033",
  "linkReferences": {},
  "deployedLinkReferences": {}
}