{
  "_format": "hh-sol-artifact-1",
  "contractName": "Lottery",
  "sourceName": "contracts/Lottery.sol",
  "abi": [
    {
      "inputs": [
        {
          "internalType": "contract KhyberCrystal",
          "name": "_khrystal",
          "type": "address"
        },
        {
          "internalType": "contract KhyberToken",
          "name": "_phyberToken",
          "type": "address"
        },
        {
          "internalType": "contract IERC20",
          "name": "_linkToken",
          "type": "address"
        },
        {
          "internalType": "address",
          "name": "_coorAddress",
          "type": "address"
        },
        {
          "internalType": "address",
          "name": "_linkAddress",
          "type": "address"
        },
        {
          "internalType": "uint256",
          "name": "_fee",
          "type": "uint256"
        },
        {
          "internalType": "bytes32",
          "name": "_keyHash",
          "type": "bytes32"
        }
      ],
      "stateMutability": "nonpayable",
      "type": "constructor"
    },
    {
      "anonymous": false,
      "inputs": [
        {
          "indexed": true,
          "internalType": "address",
          "name": "winner",
          "type": "address"
        },
        {
          "indexed": true,
          "internalType": "uint256",
          "name": "amount",
          "type": "uint256"
        }
      ],
      "name": "LotteryClaim",
      "type": "event"
    },
    {
      "anonymous": false,
      "inputs": [
        {
          "indexed": true,
          "internalType": "uint256",
          "name": "_lotteryCount",
          "type": "uint256"
        },
        {
          "indexed": true,
          "internalType": "bytes32",
          "name": "_requestId",
          "type": "bytes32"
        }
      ],
      "name": "LotteryStart",
      "type": "event"
    },
    {
      "anonymous": false,
      "inputs": [
        {
          "indexed": true,
          "internalType": "bytes32",
          "name": "_requestId",
          "type": "bytes32"
        },
        {
          "indexed": true,
          "internalType": "uint256",
          "name": "_winningNumber",
          "type": "uint256"
        }
      ],
      "name": "NumberReceived",
      "type": "event"
    },
    {
      "anonymous": false,
      "inputs": [
        {
          "indexed": true,
          "internalType": "address",
          "name": "previousOwner",
          "type": "address"
        },
        {
          "indexed": true,
          "internalType": "address",
          "name": "newOwner",
          "type": "address"
        }
      ],
      "name": "OwnershipTransferred",
      "type": "event"
    },
    {
      "anonymous": false,
      "inputs": [
        {
          "indexed": true,
          "internalType": "address",
          "name": "from",
          "type": "address"
        },
        {
          "indexed": true,
          "internalType": "uint256",
          "name": "amount",
          "type": "uint256"
        }
      ],
      "name": "WithdrawLink",
      "type": "event"
    },
    {
      "inputs": [
        {
          "internalType": "address",
          "name": "from",
          "type": "address"
        },
        {
          "internalType": "uint256",
          "name": "phyber",
          "type": "uint256"
        }
      ],
      "name": "addToLotteryPool",
      "outputs": [],
      "stateMutability": "nonpayable",
      "type": "function"
    },
    {
      "inputs": [],
      "name": "claimLottoWinnings",
      "outputs": [],
      "stateMutability": "nonpayable",
      "type": "function"
    },
    {
      "inputs": [],
      "name": "getLinkBalance",
      "outputs": [
        {
          "internalType": "uint256",
          "name": "",
          "type": "uint256"
        }
      ],
      "stateMutability": "view",
      "type": "function"
    },
    {
      "inputs": [],
      "name": "getWinningNumber",
      "outputs": [],
      "stateMutability": "nonpayable",
      "type": "function"
    },
    {
      "inputs": [],
      "name": "khrystal",
      "outputs": [
        {
          "internalType": "contract KhyberCrystal",
          "name": "",
          "type": "address"
        }
      ],
      "stateMutability": "view",
      "type": "function"
    },
    {
      "inputs": [],
      "name": "linkToken",
      "outputs": [
        {
          "internalType": "contract IERC20",
          "name": "",
          "type": "address"
        }
      ],
      "stateMutability": "view",
      "type": "function"
    },
    {
      "inputs": [],
      "name": "lotteryCount",
      "outputs": [
        {
          "internalType": "uint256",
          "name": "",
          "type": "uint256"
        }
      ],
      "stateMutability": "view",
      "type": "function"
    },
    {
      "inputs": [],
      "name": "owner",
      "outputs": [
        {
          "internalType": "address",
          "name": "",
          "type": "address"
        }
      ],
      "stateMutability": "view",
      "type": "function"
    },
    {
      "inputs": [],
      "name": "phyberToken",
      "outputs": [
        {
          "internalType": "contract KhyberToken",
          "name": "",
          "type": "address"
        }
      ],
      "stateMutability": "view",
      "type": "function"
    },
    {
      "inputs": [
        {
          "internalType": "bytes32",
          "name": "requestId",
          "type": "bytes32"
        },
        {
          "internalType": "uint256",
          "name": "randomness",
          "type": "uint256"
        }
      ],
      "name": "rawFulfillRandomness",
      "outputs": [],
      "stateMutability": "nonpayable",
      "type": "function"
    },
    {
      "inputs": [],
      "name": "renounceOwnership",
      "outputs": [],
      "stateMutability": "nonpayable",
      "type": "function"
    },
    {
      "inputs": [
        {
          "internalType": "bytes32",
          "name": "",
          "type": "bytes32"
        }
      ],
      "name": "requestIdToCount",
      "outputs": [
        {
          "internalType": "uint256",
          "name": "",
          "type": "uint256"
        }
      ],
      "stateMutability": "view",
      "type": "function"
    },
    {
      "inputs": [
        {
          "internalType": "address",
          "name": "newOwner",
          "type": "address"
        }
      ],
      "name": "transferOwnership",
      "outputs": [],
      "stateMutability": "nonpayable",
      "type": "function"
    },
    {
      "inputs": [
        {
          "internalType": "uint256",
          "name": "",
          "type": "uint256"
        }
      ],
      "name": "winningNumber",
      "outputs": [
        {
          "internalType": "uint256",
          "name": "",
          "type": "uint256"
        }
      ],
      "stateMutability": "view",
      "type": "function"
    },
    {
      "inputs": [],
      "name": "withdrawLink",
      "outputs": [],
      "stateMutability": "nonpayable",
      "type": "function"
    }
  ],
  "bytecode": "0x60c06040523480156200001157600080fd5b50604051620011af380380620011af8339810160408190526200003491620000e2565b600080546001600160a01b03191633908117825560405186928692918291907f8be0079c531659141344cd1fd0a4f28419497f9722a3daafe3b4186f6b6457e0908290a350606091821b6001600160601b031990811660a052911b16608052600680546001600160a01b03199081166001600160a01b03998a16179091556007805482169789169790971790965560088054909616949096169390931790935550600455506005556200018d565b600080600080600080600060e0888a031215620000fd578283fd5b87516200010a8162000174565b60208901519097506200011d8162000174565b6040890151909650620001308162000174565b6060890151909550620001438162000174565b6080890151909450620001568162000174565b8093505060a0880151915060c0880151905092959891949750929550565b6001600160a01b03811681146200018a57600080fd5b50565b60805160601c60a05160601c610fef620001c0600039600081816107fc0152610c9801526000610c690152610fef6000f3fe608060405234801561001057600080fd5b50600436106100f55760003560e01c80638b0b9ed411610097578063b8b81e4011610066578063b8b81e40146101bf578063c6f6d9d9146101df578063c7d59d75146101e8578063f2fde38b1461020857600080fd5b80638b0b9ed41461018b5780638da5cb5b146101935780638dc654a2146101a457806394985ddd146101ac57600080fd5b806357970e93116100d357806357970e93146101555780636b04869e14610168578063715018a61461017b5780638ac05f921461018357600080fd5b8063106423f2146100fa57806350c5f9751461012a57806357714c3e14610140575b600080fd5b60075461010d906001600160a01b031681565b6040516001600160a01b0390911681526020015b60405180910390f35b61013261021b565b604051908152602001610121565b61015361014e366004610e34565b61029c565b005b60085461010d906001600160a01b031681565b60065461010d906001600160a01b031681565b6101536103b2565b610153610463565b6101536105aa565b6000546001600160a01b031661010d565b610153610665565b6101536101ba366004610e95565b6107f1565b6101326101cd366004610e7d565b60096020526000908152604090205481565b61013260035481565b6101326101f6366004610e7d565b600a6020526000908152604090205481565b610153610216366004610e13565b610877565b6008546040516370a0823160e01b81523060048201526000916001600160a01b0316906370a082319060240160206040518083038186803b15801561025f57600080fd5b505afa158015610273573d6000803e3d6000fd5b505050506040513d601f19601f820116820180604052508101906102979190610eb6565b905090565b600081116102f15760405162461bcd60e51b815260206004820152600f60248201527f43616e6e6f7420616464207a65726f000000000000000000000000000000000060448201526064015b60405180910390fd5b80600260008282546103039190610f39565b90915550506007546040517f23b872dd0000000000000000000000000000000000000000000000000000000081526001600160a01b03848116600483015230602483015260448201849052909116906323b872dd90606401602060405180830381600087803b15801561037557600080fd5b505af1158015610389573d6000803e3d6000fd5b505050506040513d601f19601f820116820180604052508101906103ad9190610e5d565b505050565b6000546001600160a01b0316331461040c5760405162461bcd60e51b815260206004820181905260248201527f4f776e61626c653a2063616c6c6572206973206e6f7420746865206f776e657260448201526064016102e8565b600080546040516001600160a01b03909116907f8be0079c531659141344cd1fd0a4f28419497f9722a3daafe3b4186f6b6457e0908390a36000805473ffffffffffffffffffffffffffffffffffffffff19169055565b61046c336109b5565b801561047a57506000600254115b6104ec5760405162461bcd60e51b815260206004820152603060248201527f596f752065697468657220646964206e6f742077696e206f72206e6f7468696e60448201527f6720696e206c6f7474657279506f6f6c0000000000000000000000000000000060648201526084016102e8565b60028054600090915560075460405163a9059cbb60e01b8152336004820152602481018390526001600160a01b039091169063a9059cbb90604401602060405180830381600087803b15801561054157600080fd5b505af1158015610555573d6000803e3d6000fd5b505050506040513d601f19601f820116820180604052508101906105799190610e5d565b50604051819033907f54e4d435edfc4d840024a9bbc857ff78e168dc9e3a47975a08983a2c0758568c90600090a350565b6000546001600160a01b031633146106045760405162461bcd60e51b815260206004820181905260248201527f4f776e61626c653a2063616c6c6572206973206e6f7420746865206f776e657260448201526064016102e8565b600061060e610b27565b6003546000828152600a60205260408082208390555192935083927fc8453365fa195e9b51ea141dc9b600e817ba52d8c91f04900b712f29c3549be59190a36003805490600061065d83610f68565b919050555050565b6000546001600160a01b031633146106bf5760405162461bcd60e51b815260206004820181905260248201527f4f776e61626c653a2063616c6c6572206973206e6f7420746865206f776e657260448201526064016102e8565b6008546040516370a0823160e01b81523060048201526000916001600160a01b0316906370a082319060240160206040518083038186803b15801561070357600080fd5b505afa158015610717573d6000803e3d6000fd5b505050506040513d601f19601f8201168201806040525081019061073b9190610eb6565b60085460405163a9059cbb60e01b8152336004820152602481018390529192506001600160a01b03169063a9059cbb90604401602060405180830381600087803b15801561078857600080fd5b505af115801561079c573d6000803e3d6000fd5b505050506040513d601f19601f820116820180604052508101906107c09190610e5d565b50604051819033907f12b25b675c326f2373fa9b6e2d394dcfb471baa7c0fe8df426279c2a3d77c4a890600090a350565b336001600160a01b037f000000000000000000000000000000000000000000000000000000000000000016146108695760405162461bcd60e51b815260206004820152601f60248201527f4f6e6c7920565246436f6f7264696e61746f722063616e2066756c66696c6c0060448201526064016102e8565b6108738282610b71565b5050565b6000546001600160a01b031633146108d15760405162461bcd60e51b815260206004820181905260248201527f4f776e61626c653a2063616c6c6572206973206e6f7420746865206f776e657260448201526064016102e8565b6001600160a01b03811661094d5760405162461bcd60e51b815260206004820152602660248201527f4f776e61626c653a206e6577206f776e657220697320746865207a65726f206160448201527f646472657373000000000000000000000000000000000000000000000000000060648201526084016102e8565b600080546040516001600160a01b03808516939216917f8be0079c531659141344cd1fd0a4f28419497f9722a3daafe3b4186f6b6457e091a36000805473ffffffffffffffffffffffffffffffffffffffff19166001600160a01b0392909216919091179055565b6006546040516370a0823160e01b81526001600160a01b03838116600483015260009283929116906370a082319060240160206040518083038186803b1580156109fe57600080fd5b505afa158015610a12573d6000803e3d6000fd5b505050506040513d601f19601f82011682018060405250810190610a369190610eb6565b90506000600960006001600354610a4d9190610f51565b815260200190815260200160002054905060005b82811015610b1f576006546040517f2f745c590000000000000000000000000000000000000000000000000000000081526001600160a01b0387811660048301526024820184905284921690632f745c599060440160206040518083038186803b158015610ace57600080fd5b505afa158015610ae2573d6000803e3d6000fd5b505050506040513d601f19601f82011682018060405250810190610b069190610eb6565b1415610b1757506001949350505050565b600101610a61565b505050919050565b600080610b35600143610f51565b6040805191406020830152016040516020818303038152906040528051906020012060001c9050610b6b60055460045483610c65565b91505090565b600654604080517fc4e41b2200000000000000000000000000000000000000000000000000000000815290516000926001600160a01b03169163c4e41b22916004808301926020929190829003018186803b158015610bcf57600080fd5b505afa158015610be3573d6000803e3d6000fd5b505050506040513d601f19601f82011682018060405250810190610c079190610eb6565b90506000610c158284610f83565b6000858152600a60209081526040808320548352600990915280822083905551919250829186917fe5d62159d150df9ef19174bcdaefd204027b471475b976a0be0ee3e9f31f547291a350505050565b60007f00000000000000000000000000000000000000000000000000000000000000006001600160a01b0316634000aea07f0000000000000000000000000000000000000000000000000000000000000000858786604051602001610cd4929190918252602082015260400190565b6040516020818303038152906040526040518463ffffffff1660e01b8152600401610d0193929190610ece565b602060405180830381600087803b158015610d1b57600080fd5b505af1158015610d2f573d6000803e3d6000fd5b505050506040513d601f19601f82011682018060405250810190610d539190610e5d565b5060008481526001602081815260408084205481518084018a905280830188905230606082015260808082018390528351808303909101815260a09091019092528151918301919091209388905290829052610dae91610f39565b600086815260016020526040902055610dee8582604080516020808201949094528082019290925280518083038201815260609092019052805191012090565b95945050505050565b80356001600160a01b0381168114610e0e57600080fd5b919050565b600060208284031215610e24578081fd5b610e2d82610df7565b9392505050565b60008060408385031215610e46578081fd5b610e4f83610df7565b946020939093013593505050565b600060208284031215610e6e578081fd5b81518015158114610e2d578182fd5b600060208284031215610e8e578081fd5b5035919050565b60008060408385031215610ea7578182fd5b50508035926020909101359150565b600060208284031215610ec7578081fd5b5051919050565b6001600160a01b0384168152600060208481840152606060408401528351806060850152825b81811015610f1057858101830151858201608001528201610ef4565b81811115610f215783608083870101525b50601f01601f19169290920160800195945050505050565b60008219821115610f4c57610f4c610fa3565b500190565b600082821015610f6357610f63610fa3565b500390565b6000600019821415610f7c57610f7c610fa3565b5060010190565b600082610f9e57634e487b7160e01b81526012600452602481fd5b500690565b634e487b7160e01b600052601160045260246000fdfea2646970667358221220c6299b4363338a204c892458e11086327082e18242951fc1306095c34e87c78d64736f6c63430008040033",
  "linkReferences": {},
  "deployedLinkReferences": {}
}